:100000000C942A000C9447000C9447000C94470071
:100010000C9447000C9447000C9447000C94470044
:100020000C9447000C949E030C9447000C94F0032E
:100030000C9447000C9447000C9447000C94470024
:100040000C9447000C9447000C9447000C94470014
:100050000C94470011241FBECFE5D4E0DEBFCDBF16
:1000600011E0A0E6B0E0E0ECF8E002C005900D92EF
:10007000AA3BB107D9F711E0AAEBB1E001C01D928C
:10008000AD3BB107E1F70E9449000C945E040C946B
:100090000000BF92CF92DF92EF92FF920F931F93D7
:1000A000DF93CF93CDB7DEB763970FB6F894DEBF7B
:1000B0000FBECDBF0E94AE020E94BA0378948DE0BD
:1000C00090E00E940B0290E0853009F491E0BB249F
:1000D000992309F073C028ECC22ED12C7E0108941C
:1000E000E11CF11C8E01095F1F4F80E060E040E6DB
:1000F00050E00E940F0381E060E040E750E00E9482
:100100000F0380E29EE4F6013197F1F70197D9F7EA
:1001100081E060E041E850E00E940F03C7010E94C7
:1001200054030E941A0380E060E042E950E00E941C
:100130000F03C8010E945403C701B8010E941004B4
:10014000882331F58DE090E065E00E9403020E9473
:100150001A0380E063E043EA50E00E940F0381E06D
:1001600064E04CEA50E00E940F0380E29EE428EC39
:1001700030E0F9013197F1F70197D9F78E01035F6C
:100180001F4FCE010196B8010E9440038AE002C1D0
:100190000E941A0380E060E042EB50E00E940F03EF
:1001A00081E060E041EC50E00E940F0380E29EE4B9
:1001B000F6013197F1F70197D9F797CF80E060E02A
:1001C00040ED50E00E940F0381E060E041EE50E01E
:1001D0000E940F030E9454028B32C9F40E941A033A
:1001E00080E060E041EF50E00E940F038E010F5F5E
:1001F0001F4FC8010E9454039DE0E92EF12CEC0E24
:10020000FD1EC801B7010E9440038CE01AC08D3268
:10021000A9F60E941A0380E060E040E051E00E94ED
:100220000F038E010F5F1F4FC8010E9454038DE022
:10023000E82EF12CEC0EFD1EC801B7010E94400310
:100240008DE00E94C403C7010E94CC038091BA01D3
:10025000813019F51092BA010E941A0380E060E023
:100260004DE051E00E940F030E9495038091BB0175
:100270008630E0F31092BB010E941A0380E060E038
:100280004DE151E00E940F030E9495038091BB0154
:100290008630E0F31092BB0191CF8091BA01823099
:1002A00051F51092BA01B39483E0B81691F40E940C
:1002B0001A0380E060E04DE251E00E940F030E94CB
:1002C00095038091BB018D32E1F71092BB01BB24F5
:1002D00075CF0E941A0380E060E04EE351E00E9477
:1002E0000F0380E29EE428EC30E0F9013197F1F74A
:1002F0000197D9F763CF8091BA01833009F066C0C6
:100300001092BA0180E060E041E551E00E940F03E5
:1003100081E060E041E850E00E940F037E01089414
:10032000E11CF11CC7010E94540380E060E040E63C
:1003300051E00E940F0381E060E041E850E00E943C
:100340000F038E01095F1F4FC8010E945403C701AC
:10035000B8010E941004882319F560E044E751E0D9
:100360000E940F0381E060E041E850E00E940F032B
:1003700080E29EE428EC30E0F9013197F1F7019733
:10038000D9F78E01035F1F4FCE010196B8010E947D
:10039000400383E00E94C403C8010E94CC030ECF37
:1003A00080E060E046E851E00E940F0381E060E0F9
:1003B00041E850E00E940F0380E29EE428EC30E028
:1003C000F9013197F1F70197D9F7F8CE8091BA0189
:1003D000843009F03BCF1092BA0180E060E047E939
:1003E00051E00E940F0381E060E041E850E00E948C
:1003F0000F0380E29EE428EC30E0F9013197F1F739
:100400000197D9F7DBCEE199FECF9FBB8EBB6DBBC9
:10041000E29AE19A0895E199FECF9FBB8EBBE09AE4
:100420008DB30895883081F1893080F4843021F1D2
:10043000853038F48230D1F08330E0F4813099F5A2
:1004400017C08630E9F08730E8F418C08C3021F10D
:100450008D3028F48A30E1F08B30E0F417C08F3013
:10046000F9F08031F9F08E30F1F418C088E0089589
:1004700087E0089589E0089585E2089584E008956D
:1004800085E0089586E008958AE2089581E0089560
:1004900082E0089583E008958DE2089580E0089554
:1004A0008DE308958BE2089550E040E060E170E054
:1004B00001C0542FCB01052E02C0880F991F0A944A
:1004C000E2F784BB809585BB20E030E083B390E009
:1004D000022E02C0959587950A94E2F780FD0AC026
:1004E0004F5F220F331F220F331F842F820F0E9472
:1004F000120208952F5F3F4F2430310539F7452F01
:100500004F5F4430B0F250E040E0D4CFC298C19881
:1005100020ED37E0F9013197F1F7C09AF9013197F1
:10052000F1F7482F407F4BBBF9013197F1F7C098A5
:10053000F9013197F1F7C09AF9013197F1F790E09D
:1005400044E0880F991F4A95E1F78BBBC9010197D9
:10055000F1F7C098C9010197F1F7089587B3876053
:1005600087BB8AB3806F8ABB82E00E94860288E2E2
:100570000E9486028CE00E94860281E00E94860230
:100580000895C29AC19820ED37E0F9013197F1F74B
:10059000C09AF9013197F1F7482F407F4BBBF90121
:1005A0003197F1F7C098F9013197F1F7C09AF90145
:1005B0003197F1F790E054E0880F991F5A95E1F7D1
:1005C0008BBBC9010197F1F7C098C9010197F1F7F9
:1005D00008951F93CF93DF93EC0110E003C00E94B6
:1005E000C1021F5FFE01E10FF11D80818823B9F771
:1005F000DF91CF911F910895813039F0813050F013
:10060000823029F0833031F404C0605C03C0605F45
:1006100001C0605B862F80680E94860208950F9358
:100620001F938A010E94FC02C8010E94E9021F91E7
:100630000F91089581E00E94860208950F931F9301
:10064000DF93CF93CDB7DEB760970FB6F894DEBFD8
:100650000FBECDBF8E010F5F1F4FB8014AE050E0C3
:100660000E941904C8010E94E90260960FB6F8942E
:10067000DEBF0FBECDBFCF91DF911F910F910895C7
:10068000AC01DB0120E030E093E2FA01E20FF31F5E
:1006900080818C93253009F49C932F5F3F4F1196F6
:1006A0002630310591F70895EF92FF921F93CF9373
:1006B000DF93EC0110E088ECE82EF12C0E9454024C
:1006C0008A3219F18A30C8F4E12FFF27E7FDF0954F
:1006D000EC0FFD1F808380EA9FE0F7013197F1F76F
:1006E0000197D9F7612F6D5F81E00E94FC028AE2D9
:1006F0000E94C102143081F402C011500DC00E944A
:1007000054028D3061F08A3239F481E060E048EAC9
:1007100051E00E940F031FEF1F5F15307CF2DF9145
:10072000CF911F91FF90EF90089512BE89B781601D
:1007300089BF85E883BF1092BB0108951F920F9275
:100740000FB60F9211248F938091BC018F5F80931D
:10075000BC018091BC01803239F48091BB018F5F74
:100760008093BB011092BC018F910F900FBE0F9030
:100770001F90189582E08BB988E98AB986E880BD18
:1007800010BC87E689B908955D9BFECF8CB90895AA
:100790005F9BFECF8CB1089520E004C05D9BFECF2F
:1007A000ECB92F5FFC01E20FF11DE081EE23B1F700
:1007B0000895DC015F9BFECF8CB18C9390E008C064
:1007C0009F5F5F9BFECF8CB1FD01E90FF11D808320
:1007D000FD01E90FF11D8081833291F710820895A8
:1007E0001F920F920FB60F9211248F935F9BFECF33
:1007F0008CB18E3011F481E00BC08F3011F482E0A7
:1008000007C0813011F483E003C0823019F484E022
:100810008093BA018F910F900FBE0F901F90189583
:10082000FB01DC018D91019080190110D9F3990B26
:100830000895FB019F01E8944230C4F04532B4F4BE
:100840004A3029F497FB1EF4909581959F4F642FB1
:1008500077270E944A04805D8A330CF0895D81937A
:10086000CB010097A1F716F45DE251931082C90104
:100870000C943A04DC01FC01672F71917723E1F7B6
:10088000329704C07C916D9370836291AE17BF075D
:10089000C8F30895AA1BBB1B51E107C0AA1FBB1FC9
:1008A000A617B70710F0A61BB70B881F991F5A95FC
:1008B000A9F780959095BC01CD010895F894FFCFDC
:1008C000456E746572204E657720706173733A00CF
:1008D0004F4E3A454E54455220583A434C454152AA
:1008E0000020202020202020202020202020202028
:1008F00020005265456E74657220546865207061F1
:1009000073730070617373776F7264004D61746309
:10091000680070617373204E4F54204D415443481A
:1009200000506C65617365205265456E7465720098
:100930002D203A204F70656E20446F6F722020206A
:10094000002B203A204368616E67652070617373E5
:100950000043757272656E7420706173733A200083
:10096000456E74657220706173733A2000446F6F36
:1009700072204973204F70656E696E6700446F6F17
:100980007220497320436C6F73696E6700202020CA
:1009900020204552524F5220202020202000577204
:1009A0006F6E672070617373776F726420202020F0
:1009B000004E65772070617373776F72643A200020
:1009C0005265656E7465722070617373776F7264BF
:1009D0002020200070617373776F7264204D617402
:1009E00063682020200070617373204E4F54204DA7
:1009F0006174636820200057726F6E6720706173A6
:100A000073776F7264202000202020202020202077
:0A0A100020202020202020200000DC
:00000001FF
