:100000000C942A000C9447000C9447000C94470071
:100010000C9447000C9447000C9447000C94470044
:100020000C9447000C94CF030C9447000C942104CB
:100030000C9447000C9447000C9447000C94470024
:100040000C9447000C9447000C9447000C94470014
:100050000C94470011241FBECFE5D4E0DEBFCDBF16
:1000600010E0A0E6B0E0E6E6F9E002C005900D92EF
:10007000A237B107D9F710E0A2E7B0E001C01D92A6
:10008000A738B107E1F70E9449000C94B1040C9421
:1000900000004F925F926F927F928F929F92AF92E9
:1000A000BF92CF92DF92EF92FF920F931F93DF9355
:1000B000CF93CDB7DEB727970FB6F894DEBF0FBE4C
:1000C000CDBF19820E94EB030E94C8010E94CB01A0
:1000D00078948A9ADD24CC2448EC442E512C32E0CA
:1000E000832E912C8C0E9D1E3E010894611C711C68
:1000F00002C095E0D92E809172008823E1F38091AF
:100100007200813059F5109272008D2D992787FD6C
:1001100090952AE0E22EF12CE80EF91E00E010E0A6
:100120005C0111C040818EEAB7010E94900184EF0A
:1001300091E0F2013197F1F70197D9F70F5F1F4F67
:100140000894E11CF11C9D2D900FF801EA0DFB1D98
:10015000E558FF4F8081882329F7CCCF809172002A
:10016000823009F04CC01092720074010AE010E075
:100170008EEAB801A3010E9447018981F7018193AA
:100180007F010F5F1F4F0F30110591F71F8285E729
:1001900090E0B4010E9463048823E1F48EE00E94A1
:1001A000F50380E395E70E94E4010E94C603809175
:1001B00073008630E1F71092730080E395E70E94A8
:1001C000D101809173008630E1F7109273000E9494
:1001D000F70112C08FE00E94F503C394F3E0CF163D
:1001E00009F087CF929A0E94C603809173008D32E6
:1001F000E1F710927300929895E0CC247BCF809128
:100200007200833009F51092720074010AE010E068
:100210008EEAB801A3010E9447018981F701819309
:100220007F010F5F1F4F0F30110591F71F8281E88B
:1002300090E0B4010E946304882311F481E001C0BE
:1002400082E00E94F50355CF80917200843011F056
:100250009D2D50CF1092720000E010E010C0408140
:10026000B801665F7F4F8EEA0E94900184EF91E0B3
:10027000F2013197F1F70197D9F70F5F1F4F902FD8
:10028000F801EF57FF4F8081882349F733CFFF9262
:100290000F931F93CF93DF93F82EEB018A010E94F7
:1002A00002020E9420028830A1F58F2D0E940B02CD
:1002B0000E942002883169F5CE01880F892F881F9E
:1002C000990B91950E940B020E942002883209F539
:1002D0008C2F0E940B020E9420028832D1F40E94CF
:1002E00002020E9420028031A1F48F2D81600E94C1
:1002F0000B020E942002803461F40E941902F8016E
:1003000080830E942002883521F40E94080281E047
:1003100001C080E0DF91CF911F910F91FF90089570
:100320000F931F93CF93DF93182FEB01042F0E949D
:1003300002020E942002883029F5812F0E940B02C0
:100340000E9420028831F1F4CE01880F892F881F86
:10035000990B91950E940B020E942002883291F421
:100360008C2F0E940B020E942002883259F4802FA9
:100370000E940B020E942002883221F40E9408028F
:1003800081E001C080E0DF91CF911F910F9108952E
:100390000E94FB010895A29AA39A85B3837F85BB2F
:1003A0000895AA9AAB981DBC1CBC20E63AEE37BD56
:1003B00026BD9BBD8ABD8D9A82E88FBD8FB5877F94
:1003C0008FBD89E18EBD0895AA98AB9A1DBC1CBC57
:1003D00020E63AEE37BD26BD9BBD8ABD8D9A82E8E8
:1003E0008FBD8FB5877F8FBD89E18EBD089585B3A1
:1003F000837F85BB089582E080B911B882B984E01B
:1004000086BF089584EA86BF06B607FEFDCF08952D
:1004100084E986BF089583B984E886BF06B607FEDF
:10042000FDCF089584EC86BF06B607FEFDCF83B1ED
:10043000089584E886BF06B607FEFDCF83B1089510
:1004400081B1887F0895883081F1893080F48430CB
:1004500021F1853038F48230D1F08330E0F48130FE
:1004600099F517C08630E9F08730E8F418C08C3071
:1004700021F18D3028F48A30E1F08B30E0F417C0A0
:100480008F30F9F08031F9F08E30F1F418C088E047
:10049000089587E0089589E0089585E2089584E04D
:1004A000089585E0089586E008958AE2089581E040
:1004B000089582E0089583E008958DE2089580E034
:1004C00008958DE308958BE2089550E040E060E1E7
:1004D00070E001C0542FCB01052E02C0880F991F78
:1004E0000A94E2F784BB809585BB20E030E083B3BB
:1004F00090E0022E02C0959587950A94E2F780FD60
:100500000AC04F5F220F331F220F331F842F820F29
:100510000E94230208952F5F3F4F2430310539F7A1
:10052000452F4F5F4430B0F250E040E0D4CFC29846
:10053000C19820ED37E0F9013197F1F7C09AF90140
:100540003197F1F7482F407F4BBBF9013197F1F715
:10055000C098F9013197F1F7C09AF9013197F1F795
:1005600090E044E0880F991F4A95E1F78BBBC901E1
:100570000197F1F7C098C9010197F1F7089587B382
:10058000876087BB8AB3806F8ABB82E00E94970234
:1005900088E20E9497028CE00E94970281E00E940C
:1005A00097020895C29AC19820ED37E0F90131977A
:1005B000F1F7C09AF9013197F1F7482F407F4BBB13
:1005C000F9013197F1F7C098F9013197F1F7C09A25
:1005D000F9013197F1F790E054E0880F991F5A958F
:1005E000E1F78BBBC9010197F1F7C098C9010197E9
:1005F000F1F708951F93CF93DF93EC0110E003C050
:100600000E94D2021F5FFE01E10FF11D808188234D
:10061000B9F7DF91CF911F910895813039F0813082
:1006200050F0823029F0833031F404C0605C03C0A4
:10063000605F01C0605B862F80680E94970208950A
:100640000F931F938A010E940D03C8010E94FA02B2
:100650001F910F91089581E00E94970208950F93D2
:100660001F93DF93CF93CDB7DEB760970FB6F894A3
:10067000DEBF0FBECDBF8E010F5F1F4FB8014AE036
:1006800050E00E946C04C8010E94FA0260960FB606
:10069000F894DEBF0FBECDBFCF91DF911F910F91B8
:1006A0000895CF93DF93EC0140E020E030E0FE01BD
:1006B000E20FF31FDB01A20FB31F90818C919817FB
:1006C00009F44F5F2F5F3F4F2530310581F7842FAD
:1006D000DF91CF910895CF93DF93AC01EB0120E040
:1006E00030E093E2FE01E20FF31FDA01A20FB31F25
:1006F0008C918083253009F49D832F5F3F4F2630F6
:10070000310581F7DF91CF910895EF92FF921F930A
:10071000CF93DF93EC0110E088ECE82EF12C0E94DF
:1007200065028A3219F18A30C8F4E12FFF27E7FD0C
:10073000F095EC0FFD1F808384EC99E0F701319771
:10074000F1F70197D9F7612F6D5F81E00E940D03EA
:100750008AE20E94D202143081F402C011500DC00E
:100760000E9465028D3061F08A3239F481E060E0E8
:1007700040E650E00E9420031FEF1F5F15307CF21F
:10078000DF91CF911F91FF90EF90089512BE89B72E
:10079000816089BF85E883BF1092730008951F921E
:1007A0000F920FB60F9211248F93809174008F5F78
:1007B0008093740080917400803239F480917300CA
:1007C0008F5F80937300109274008F910F900FBE13
:1007D0000F901F90189582E08BB988E98AB986E856
:1007E00080BD10BC87E689B908955D9BFECF8CB9AA
:1007F00008955F9BFECF8CB1089520E004C05D9BFF
:10080000FECFECB92F5FFC01E20FF11DE081EE237A
:10081000B1F70895DC015F9BFECF8CB18C9390E023
:1008200008C09F5F5F9BFECF8CB1FD01E90FF11DFA
:100830008083FD01E90FF11D8081833291F71082E1
:1008400008951F920F920FB60F9211242F933F938A
:100850004F935F936F937F938F939F93AF93BF93C8
:10086000EF93FF935F9BFECF8CB18A3031F481E030
:10087000809372008BE790E013C08D3031F482E0FA
:100880008093720085E790E00BC08C3011F483E018
:1008900003C0833039F484E08093720081E890E0F3
:1008A0000E940A04FF91EF91BF91AF919F918F91A8
:1008B0007F916F915F914F913F912F910F900FBE5C
:1008C0000F901F901895FB01DC018D91019080190C
:1008D0000110D9F3990B0895FB019F01E894423070
:1008E000C4F04532B4F44A3029F497FB1EF49095D5
:1008F00081959F4F642F77270E949D04805D8A33E6
:100900000CF0895D8193CB010097A1F716F45DE2AD
:1009100051931082C9010C948D04DC01FC01672FF6
:1009200071917723E1F7329704C07C916D937083C6
:100930006291AE17BF07C8F30895AA1BBB1B51E114
:1009400007C0AA1FBB1FA617B70710F0A61BB70B3F
:10095000881F991F5A95A9F780959095BC01CD01E4
:060960000895F894FFCF9A
:100966002020202020202020202020202020202081
:0209760000007F
:00000001FF
